:03000000020A6889
:0C0A6800787FE4F6D8FD758109020800D3
:10080000E4F5A0F508F509AE08AF09E4FCFD7B406E
:100810007A9CF9F8D3120A52400A0509E50970E7F3
:10082000050880E375A006E4F508F509AE08AF09F0
:10083000E4FCFD7B407A9CF9F8D3120A52400A0589
:1008400009E50970E7050880E375A05BE4F508F5A4
:1008500009AE08AF09E4FCFD7B407A9CF9F8D3129D
:100860000A52400A0509E50970E7050880E375A00A
:100870004FE4F508F509AE08AF09E4FCFD7B407ACA
:100880009CF9F8D3120A52400A0509E50970E705F8
:100890000880E375A066E4F508F509AE08AF09E441
:1008A000FCFD7B407A9CF9F8D3120A52400A0509F4
:1008B000E50970E7050880E375A06DE4F508F50922
:1008C000AE08AF09E4FCFD7B407A9CF9F8D3120A2C
:1008D00052400A0509E50970E7050880E375A07D27
:1008E000E4F508F509AE08AF09E4FCFD7B407A9C0D
:1008F000F9F8D3120A52400A0509E50970E705081C
:1009000080E375A007E4F508F509AE08AF09E4FC3B
:10091000FD7B407A9CF9F8D3120A52400A0509E59A
:100920000970E7050880E375A07FE4F508F509AED6
:1009300008AF09E4FCFD7B407A9CF9F8D3120A5217
:10094000400A0509E50970E7050880E375A06FE432
:10095000F508F509AE08AF09E4FCFD7B407A9CF987
:10096000F8D3120A52400A0509E50970E705088024
:10097000E375A077E4F508F509AE08AF09E4FCFDDE
:100980007B407A9CF9F8D3120A52400A0509E5091E
:1009900070E7050880E375A07CE4F508F509AE086A
:1009A000AF09E4FCFD7B407A9CF9F8D3120A52406F
:1009B0000A0509E50970E7050880E375A039E4F543
:1009C00008F509AE08AF09E4FCFD7B407A9CF9F814
:1009D000D3120A52400A0509E50970E7050880E3C9
:1009E00075A05EE4F508F509AE08AF09E4FCFD7BEF
:1009F000407A9CF9F8D3120A52400A0509E50970B9
:100A0000E7050880E375A079E4F508F509AE08AFBD
:100A100009E4FCFD7B407A9CF9F8D3120A52400AA3
:100A20000509E50970E7050880E375A071E4F5089C
:100A3000F509AE08AF09E4FCFD7B407A9CF9F8D3D8
:100A4000120A5250030208000509E50970E405087E
:020A500080E044
:100A5200EB9FF5F0EA9E42F0E99D42F0EC6480C81B
:060A620064809845F022BB
:00000001FF
